:020000040800F2
:100000004007002089010008B51F0008AD1F000847
:10001000B11F000851020008E120000800000000A4
:10002000000000000000000000000000BD1F0008EC
:100030005502000800000000B91F0008C11F000899
:10004000A3010008A3010008A3010008A301000800
:10005000A3010008A3010008A3010008A3010008F0
:10006000A3010008A3010008A3010008A3010008E0
:10007000A3010008A3010008A3010008A3010008D0
:10008000A3010008A301000845020008A30100081D
:10009000A3010008A3010008A3010008A3010008B0
:1000A000A3010008A3010008A3010008A3010008A0
:1000B000A3010008A3010008A3010008A301000890
:1000C000A3010008A3010008A3010008A301000880
:1000D000A3010008D5200008A3010008A30100081F
:1000E000A3010008A3010008A301000800F002F822
:1000F00000F03AF80AA090E8000C82448344AAF188
:100100000107DA4501D100F02FF8AFF2090EBAE885
:100110000F0013F0010F18BFFB1A43F0010318473B
:10012000702E0000902E0000103A24BF78C878C1CD
:10013000FAD8520724BF30C830C144BF04680C60ED
:10014000704700000023002400250026103A28BF35
:1001500078C1FBD8520728BF30C148BF0B60704739
:100160001FB51FBD10B510BD00F031F81146FFF7E7
:10017000F7FF01F0B7FF00F04FF803B4FFF7F2FF0D
:1001800003BC00F057F800000948804709480047C1
:10019000FEE7FEE7FEE7FEE7FEE7FEE7FEE7FEE737
:1001A000FEE7FEE704480549054A064B7047000094
:1001B000C51F0008ED000008400100204007002096
:1001C0004003002040030020704770477047754689
:1001D00000F02CF8AE4605006946534620F00700B3
:1001E000854618B020B5FFF7DDFFBDE820404FF091
:1001F00000064FF000074FF000084FF0000BAC4630
:10020000ACE8C009ACE8C009ACE8C009ACE8C0097A
:1002100021F007018D46704710B50446AFF300800A
:100220002046BDE81040FFF7A8BF00000048704717
:100230001000002001491820ABBEFEE72600020096
:100240007047000040F27800C2F2000000F0CEB823
:10025000FEE70000704700007047000010B581B055
:100260000022009290F82420012A03D1022108469E
:1002700001B010BD4B680122062B80F8242017D84E
:10028000D0F800C003EB83035A1F1F23DCF834E0CF
:1002900003FA02F40B682EEA040403FA02F2224382
:1002A000CCF83420092B03EB430219D936E000BF08
:1002B000D0F800C00C2B03EB83021DD8233A1F2378
:1002C000DCF830E003FA02F40B682EEA040403FAC7
:1002D00002F22243CCF83020092B03EB43021DD855
:1002E000DCF81030072489689440A34391401943F7
:1002F000CCF81010002130E0413A1F23DCF82CE04C
:1003000003FA02F40B682EEA040403FA02F2224311
:10031000CCF82C20092B03EB4302E1D9DCF80CE0EC
:100320001E3A0724896894402EEA0404914023F081
:1003300001022143102ACCF80C100DD142F20841E1
:10034000C4F20101A1F1080294450DD0816A41F087
:1003500020018162012100E00021002280F8242098
:10036000084601B010BD00BF0A68120230D40A6806
:10037000102B42F400020A602CD140F20801C2F2B4
:10038000000109684DF68362C4F21B32A1FB021220
:10039000910C01EB8101490000910099E1B10099B4
:1003A000013900910099C9B1009901390091009972
:1003B000B1B1009901390091009999B100990139C1
:1003C0000091009900294FF00001E8D1C5E700BF76
:1003D0000021C2E70021C0E70021BEE70021BCE701
:1003E0000021BAE70021B8E77047000070B5044665
:1003F000006805684668B10627D515F0020124D0CB
:10040000A16AC90603D4A16A41F40071A16281689E
:1004100001F46021B1F5602F10D1217B71B94168E1
:1004200021F020014160A06A20F48070A062A06ADF
:10043000C00403D4A06A40F00100A0622046FFF788
:10044000D3FF20686FF012010160310633D515F03B
:10045000040130D0A16AC90603D4A16A41F4005155
:10046000A162816801F4E041B1F5E04F10D141682B
:1004700021F080014160A06A20F48050A062A06A4F
:10048000C00511D4A06A40F00100A0620CE000BFDA
:100490004168490508D4816801F46021B1F5602FF5
:1004A00002D1217B0029E2D02046FFF7D5FE20684B
:1004B0006FF00C01016070060ED515F0010008BF49
:1004C00070BDA06A40F48030A062204600F0B4F80D
:1004D00020686FF00101016070BD0000B0B5002818
:1004E00000F0A8800446806A20B121688868C007AF
:1004F0000BD114E00020E06284F82400204600F0D4
:100500009DF821688868C00709D0886820F001003C
:10051000886000F079FA21688A68D20726D1A06A3B
:10052000C0063AD4A06A41F2021290430230A0629F
:10053000E069D4E9013240EA030C531EB3FA83F3B5
:100540005D091346B2F5807F18BF2B02207D257B05
:1005500001284CEA450030D135B3A56A45F02005A5
:10056000A562E56A45F00105E56226E0054602E080
:100570008868C007D3D000F047FA401B21680328E1
:10058000F6D38868C007F3D0A06A40F01000A062DC
:10059000E06A40F00100E062A06AA06A40F010004A
:1005A000A0620120B0BD00BFD4F818C04EF600050F
:1005B000CFF6FF7505EB4C352B434D68B2F5807FC8
:1005C00025F4694543EA05034B608B684FF2FD75DE
:1005D000CFF6E17503EA050343EA00038B6001D01F
:1005E000012A07D122690023CFF6F07303EB0252F0
:1005F00001E000BF0022CB6A23F470031A43CA62F1
:10060000896840F6FE62CFF61F721140814207D121
:100610000020E062A16A012262F30101A162B0BD83
:10062000A06A40F0100020F00200A062E06A40F0F2
:100630000100E0620120B0BD7047000080B586B0C7
:10064000014640F60000C4F20100096800F5E052DE
:1006500091424FF00001CDE9041101D006B080BDF8
:1006600041F21801C4F202010A6842F400720A6001
:100670000A6802F400720192019A0A6842F00402C8
:100680000A60096801F004010191019904210291B5
:100690000321039102A900F09DF8122000210022FD
:1006A00000F034FA122000F01DFA06B080BD000000
:1006B000014690F82100022816D10868D1E90FC33D
:1006C000026822F00E020260026822F0010202605B
:1006D000012000FA03F2CCF8042081F82100002068
:1006E000002281F820207047042088630120002226
:1006F00081F820207047000080B590F82110022971
:1007000024D10268116821F00E0111602F211368B5
:10071000C4F202018A4240F20401C4F2020123F051
:100720000103136016DD3023C4F202039A421DD088
:100730004423C4F202039A421CD05823C4F2020399
:100740009A421DD14FF4803322E000BF042181631F
:10075000012080BD0823C4F202039A420ED01C235C
:10076000C4F202039A420BD1102311E04FF48073BC
:100770000EE000BF4FF480530AE000BF012307E002
:1007800001F1680C4FF08073624508BF4FF480138D
:100790000B60012180F82110426B002180F82010AD
:1007A0000AB190470021084680BD0000B0B504465C
:1007B00000F02AF9054640F20000C2F2000000787D
:1007C000611C18BF044400BF00F01EF9401BA0428A
:1007D000FAD3B0BD2DE9F04F82B00E68002E00F0C4
:1007E000038141F20042C4F20102042340F2004EB0
:1007F000904208BF03234FF6FF7CC4F2010E009322
:1008000000240123C1F2100C4FF0000A4FF0000940
:1008100049E000BF012704F00C030F229A402BEAA5
:10082000020207FA03F34FEA9A051A4346F8252015
:10083000D1F804B040F20C455FEACB22DEF8082084
:1008400054BF22EA080242EA0802C4F20105CEF8C7
:1008500008202A685FEA8B2354BF22EA080242EA92
:1008600008022A605FEA8B33DEF8042054BF22EAD4
:10087000080242EA08025FEACB33CEF80420DEF831
:1008800000204FF0010354BF22EA080242EA0802A6
:10089000CEF800200E680AF1010A36FA0AF204F1D5
:1008A000040400F0A18003FA0AF816EA080FF1D058
:1008B0004E68664512DC122E56D8DFE806F0350B7E
:1008C0004549555555555555555555555555554DFC
:1008D000510000BFD1F80C9046E000BF4FF6FF7208
:1008E000C1F2210296420FDC0022C1F211029642AF
:1008F0001AD00022C1F21202964215D00022C1F293
:100900002102964210D02FE00022C1F2220296422C
:100910000AD00022C1F23102964205D00022C1F273
:100920003202964220D100BF8A684AB1012A14BF20
:10093000C0F81480C0F810804FF0080914E000BF20
:100940004FF0040910E000BFCA6802F108090BE08B
:100950004FF0000908E000BFCA6802F1040903E093
:10096000CA6802F10C0900BF22460646BAF1080F18
:1009700024BF203A043637680F25954027EA05053D
:1009800009FA02F22A433260CA79D2067FF582AFB1
:1009900041F21803C4F202031A68AEF57E7642F003
:1009A00001021A601A6802F001020192019A2AF00B
:1009B000030256F802B040F60002C4F2010290426F
:1009C00010D040F60042C4F2010290423FF422AF40
:1009D00041F20002C4F20102009F904208BF0227C8
:1009E00019E700BF002716E702B0BDE8F08F00004E
:1009F0008068084018BF012070470000002A08BF27
:100A0000090401617047000040F23810C2F2000092
:100A10000068704740F2000040F23811C2F2000056
:100A2000C2F2000100780A681044086070470000B4
:100A300080B542F20000C4F20200016841F01001EA
:100A40000160032000F08EF80F2000F005F800F0A0
:100A500027F8002080BD000070B540F20006C2F209
:100A6000000640F208013278C2F200014FF47A73B6
:100A70000968B3FBF2F20446B1FBF2F1084600F05C
:100A8000E9FB0F2C4FF0010508D838B94FF0FF30C3
:100A900021460022002500F039F87460284670BD18
:100AA00082B041F21800C4F202000168022241F053
:100AB00001010160016801F00101019101994168A2
:100AC00041F080514160406800F0805000900098F3
:100AD0000420C4F20100016862F31A61016002B0EF
:100AE00070470000002848BF7047C1B200F01F00E7
:100AF000012202FA00F04EF20012CEF2000242EAA7
:100B0000D10121F0030108607047000010B54EF6D6
:100B10000C5CCEF2000CDCF80030C3F3022E8EF039
:100B20000704042C28BF0424BEF103034FF0FF3E4A
:100B30000EFA04F438BF0023A14399400EFA03F3E0
:100B40009A43114300F00F0200F160430901043A97
:100B500003F564436244002848BF02F10C03197096
:100B600010BD00004EF60C51CEF200010A684FF69F
:100B7000FF031A4060F30A2242F0806040F0FD70EB
:100B8000086070472DE9F04182B00446007841F2D8
:100B90001C06C007C4F202064AD0306810F0805824
:100BA00008D1306840F080503060306800F08050EC
:100BB0000190019847F20007C4F200073868C005A9
:100BC00012D4386840F480703860FFF71DFF054686
:100BD0003868C00508D4FFF717FF401B6428F7D911
:100BE000032002B0BDE8F081706810F4407012D0AC
:100BF000616801F4407188420DD0706840F2404253
:100C0000C4F24222012320F4407113600023C00784
:100C1000136071602AD17068616820F440700843E5
:100C2000B8F1000F706003D1306820F08050306060
:100C30002068810707D556F8181CA26821F44041A6
:100C4000114346F8181CC00604D4002002B0BDE8C9
:100C5000F08100BF56F8180CE16820F480000843CA
:100C600046F8180C002002B0BDE8F081FFF7CCFE7A
:100C7000054641F2883700BF70688007CBD4FFF784
:100C8000C3FE401BB8424FF00300F5D9EBE700006C
:100C90002DE9F04381B0002800F0858042F2000881
:100CA000C4F202080446D8F800000D4600F0070020
:100CB00088420CD2D8F8000020F007002843C8F87A
:100CC0000000D8F8000000F00700A8426BD12068AF
:100CD00041F204098107C4F2020917D5410705D57D
:100CE000D9F8001041F4E061C9F80010010705D5FA
:100CF000D9F8001041F46051C9F80010D9F800107B
:100D0000A26821F0F0011143C9F80010C00741D1D9
:100D1000D8F8000000F00700A8420CD9D8F800006D
:100D200020F007002843C8F80000D8F8000000F0C1
:100D30000700A84237D12068410707D5D9F800102D
:100D4000E26821F4E0611143C9F80010000708D5FA
:100D5000D9F80000216920F4605040EAC100C9F8C8
:100D60000000D9F8002002F00C00082841F2002011
:100D7000C0F27A0050D142F67E73C2F38341C0F6CE
:100D80000003595CD2033BD440F60010C0F23D0092
:100D9000484341E0606802280AD001282AD159F866
:100DA000041C890308D4012001B0BDE8F08300BF12
:100DB00059F8041C8901F6D5D9F8001021F0030177
:100DC0000843C9F80000FFF71FFE064641F28837C6
:100DD000D9F80000616800F00C00B0EB810F97D0EB
:100DE000FFF712FE801BB842F2D9032001B0BDE824
:100DF000F08300BF59F8041C8907D4D5DCE700BF95
:100E0000D9F8002042F67C73C2F34042C0F60003DA
:100E10009A5C4843B0FBF2F0D9F8001042F66472D5
:100E2000C1F30311C0F60002515C40F2080220FA3F
:100E300001F140F20400C2F200000068C2F20002B8
:100E40001160FFF709FE002001B0BDE8F08300004B
:100E500040F2080041F20401C2F20000C4F20201B3
:100E60000068096842F67472C1F30221C0F60002FC
:100E7000515CC8407047000040F2080041F2040194
:100E8000C2F20000C4F202010068096842F67472FE
:100E9000C1F3C221C0F60002515CC8407047000097
:100EA0002DE9F04182B0002868D00446007841F274
:100EB0000006C007C4F2020625D0706800F00C00DE
:100EC00004281BD0706800F00C00082802D170685C
:100ED000C00313D46068002800F06881B0F5A02F2B
:100EE00000F07C81B0F5803F00F07C81306820F418
:100EF00080303060306820F4802076E130688003F4
:100F000001D56068D0B32078800718D5706810F0DC
:100F10000C0F07D0706800F00C0008286ED17068C4
:100F2000C0036BD43068800702D52069012825D121
:100F30003068616920F0F80040EAC1003060207834
:100F400000071FD42078400732D4E56995B1706856
:100F500000F00C00082840F08F80012D0ED0706842
:100F6000216A00F480328A4208D1616A00F470106C
:100F7000884203D1002002B0BDE8F081012002B018
:100F8000BDE8F081A069002862D00020C4F24220B0
:100F90000121C0F88014FFF737FD0546706A80070D
:100FA00000F18C80FFF730FD401B0228F6D92AE1C2
:100FB000F06910F0805808D1F06940F08050F0617D
:100FC000F06900F080500090009847F20007C4F2EA
:100FD00000073868C00529D4386840F4807038604C
:100FE000FFF712FD054600BF3868C0051ED4FFF7A5
:100FF0000BFD401B6428F7D905E100BF20690028DC
:1010000040F20000C4F2422000F082800121016021
:10101000FFF7FAFC054600BF306880073FF588AF50
:10102000FFF7F2FC401B0228F6D9ECE0E06800284C
:1010300000F08080052800F09780012800F098805B
:10104000306A20F001003062306A20F0040092E043
:101050000020C4F242200021C0F88014FFF7D4FC25
:10106000054600BF706A80077FF56CAFFFF7CCFCC8
:10107000401B0228F6D9C6E00027C4F24227002010
:101080003866FFF7C1FC022D05460BD130688001A0
:1010900040F1BE80FFF7B8FC401B02284FF0030070
:1010A000F4D968E7306880017FF564AFFFF7ACFCE6
:1010B000401B02284FF00300F4D95CE740F208001F
:1010C000C2F20000006844F6D351C1F26201A0FBF5
:1010D0000101480A019000BF00BF0198411E00288D
:1010E00001913FF42FAF00BF0198411E00280191EC
:1010F0003FF428AF00BF0198411E002801913FF442
:1011000021AF00BF0198411E00280191E4D119E7E9
:1011100000210160FFF778FC054600BF30688007BA
:101120007FF50DAFFFF770FC401B02284FF0030066
:10113000F4D920E7306A20F001003062306A20F0F4
:1011400004003062FFF760FC054641F2883700BFBB
:10115000306A800720D5FFF757FC401BB8424FF09C
:101160000300F5D907E700BF306A40F004003062A1
:10117000306A40F001003062FFF746FC054641F25C
:10118000883700BF306A800706D4FFF73DFC401B5C
:10119000B842F7D937E000BFB8F1000F7FF4D5AE01
:1011A000F06920F08050F061CFE600BF306820F495
:1011B00080303060306820F480203060FFF724FCFD
:1011C000054600BF306880037FF59DAEFFF71CFC2D
:1011D000401B64284FF00300F4D9CCE6306840F49B
:1011E00080203060306840F480303060FFF70CFCC5
:1011F000054600BF306880033FF585AEFFF704FC6D
:10120000401B6428F6D9032002B0BDE8F08100BF7E
:10121000206AB0F5803F05D17168A26821F40031E1
:10122000114371607168626A21F4741111430843BB
:10123000706001203866FFF7E7FB044630688001E4
:101240003FF598AEFFF7E0FB001B02284FF00300CC
:10125000F4D990E6411E0020B0EB116F1CBF0120B5
:1012600070474EF21002CEF2000251604EF623514A
:10127000CEF20001F0230B700721906011607047DF
:1012800010B590F83C20012A4FF0020233D080F8CC
:101290003D200268D2F804E0D2F808C00C682EF0B5
:1012A0007003234340F2FF74C4F20004A24253606F
:1012B0000ADCB2F1804F13D040F20043C4F20003C5
:1012C0009A420DD011E000BF42F60043C4F2010380
:1012D0009A4205D040F60003C4F200039A4204D1BA
:1012E00049682CF08003194391600121002280F8A5
:1012F0003D1080F83C20104610BD0000002804BFBF
:101300000120704710B5044690F83D0028B9002030
:1013100084F83C00204600F067F8022084F83D0085
:10132000206840F2FF730268C4F2000342F6004CEA
:101330009842C4F2010C15DCB0F1804F1AD040F293
:101340000041C4F20001884214D0984218DCB0F188
:10135000804F1DD040F20041C4F20001884217D0F6
:101360001AE000BF604505D040F60001C4F200015C
:101370008842EAD1A16822F070020A439842E6DD71
:10138000604505D040F60001C4F20001884203D157
:10139000216922F440720A43A36922F08001D4F843
:1013A00004E0E268194360450160C262C0F828E0C9
:1013B00002D16169CCF8301001214161002084F82C
:1013C000461084F83E1084F83F1084F8401084F8EA
:1013D000411084F8421084F8431084F8441084F8D3
:1013E000451084F83D1010BD81B0006842F6004100
:1013F000C4F20101884201D001B0704741F21800E7
:10140000C4F20200016841F400610160006800F468
:1014100000600090009801B07047000090F83D1007
:1014200001291CBF01207047022180F83D1000688F
:1014300040F2FF71C4F20001884209DCB0F1804F34
:1014400012D040F20041C4F2000188420CD012E0F8
:1014500042F60041C4F20101884205D040F6000185
:10146000C4F20001884206D1816801F00701062913
:1014700004BF00207047016841F0010101600020B5
:10148000704700000146006841F21113026A1A42D7
:1014900004D00122002081F83D207047026A40F20A
:1014A00044431A42F5D1026822F00102026001228F
:1014B000002081F83D20704780B590F83C20012A3B
:1014C0004FF0020200F0C28080F83D20D0F800C04A
:1014D0004FF67772DCF8083023EA0202CCF80820D5
:1014E0000B684F2B28DC1F2B44DD202B45D0302BE5
:1014F00043D0402B40F0AC80D1F804E0C968DCF860
:101500002030DCF8202022F00102CCF82020DCF88A
:10151000182022F0F00242EA011123F00A0242EA06
:101520000E02CCF81810CCF82020DCF8081041F09E
:10153000470121F0300180E06F2B27DDB3F5005F1C
:1015400048D0B3F5805F7AD0702B40F08180D1E92C
:1015500001E3C968DCF8082043EA0E0322F47F4265
:1015600043EA01211143CCF80810DCF8081041F0DF
:10157000770162E00BB1102B6AD1DCF8081021F082
:101580007001194341F0070157E000BF502B35D0DF
:10159000602B5DD1D1F804E0C968DCF82030DCF8BC
:1015A000202022F01002CCF82020DCF8182022F4B1
:1015B000704242EA013123F0A00242EA0E12CCF856
:1015C0001810CCF82020DCF8081041F0670121F059
:1015D000100132E0D1E901E3C968DCF8082043EAF0
:1015E0000E0322F47F4243EA01211143CCF8081094
:1015F000DCF8081041F480411FE000BFD1F804E09E
:10160000C968DCF82030DCF8202022F00102CCF898
:101610002020DCF8182022F0F00242EA011123F029
:101620000A0242EA0E02CCF81810CCF82020DCF8AE
:10163000081041F0570121F02001CCF808100022D9
:10164000012180F83D10002180F83C10104680BD3B
:101650000122F5E77047000070470000B0B582B086
:10166000044600680168C368426901F02F05202D17
:1016700003F0200506D12DB1204602B0BDE8B040F0
:1016800000F0A8BC5FEA017C1EBF02F0010E03F46B
:10169000907212EB0E0253D1226B012A05D111F088
:1016A000100218BF13F0100236D10A0622D513F02B
:1016B00080021FD094F8411021293FD1A168B1F5D3
:1016C000805F03D12169002900F07082216A4A1CE1
:1016D000226209784160E18C01390A04E1842DD14C
:1016E000C16821F08001C160C16841F04001C16062
:1016F00002B0B0BD490621D513F040011ED0C1682B
:1017000021F04001C1602021204684F8411002B040
:10171000BDE8B04000F048BC002101910168019192
:101720004168019101994069400613D4A08DE18D73
:10173000E28D002A18BF884240F0BA8102B0B0BDE5
:10174000CA0718BF13F4807240F0B6804A0700F150
:10175000B980BEE0E06B016849688AB2002AEDD02A
:10176000A38D9A42EAD2E1858069202800F09C800E
:10177000206850E8030F216820F4807041E80302DC
:10178000DAB1206850E8030F216820F4807041E846
:10179000030292B1206850E8030F216820F48070A2
:1017A00041E803024AB1206850E8030F216820F4A1
:1017B000807041E80302002ADAD1206850E8050F62
:1017C000216820F0010041E80502DAB1206850E804
:1017D000050F216820F0010041E8050292B1206860
:1017E00050E8050F216820F0010041E805024AB1E8
:1017F000206850E8050F216820F0010041E805024B
:10180000002ADAD1206850E8050F216820F0400056
:1018100041E80502DAB1206850E8050F216820F0A0
:10182000400041E8050292B1206850E8050F2168A8
:1018300020F0400041E805024AB1206850E8050F59
:10184000216820F0400041E80502002ADAD120207A
:1018500084F8420000202063206850E8030F2168CC
:1018600020F0100041E80302DAB1206850E8030FCD
:10187000216820F0100041E8030292B1206850E88E
:10188000030F216820F0100041E803024AB12068EC
:1018900050E8030F216820F0100041E80302002AFD
:1018A000DAD1E06BFEF704FF02206063A08DE18DCA
:1018B000401A81B2204674E1626C42F00102626417
:1018C0004A0706D5BEF1000F03D0626C42F0020257
:1018D00062648A0706D5BEF1000F03D0626C42F045
:1018E00004026264BCF1000F09D545EA0E02B2FAA7
:1018F00082F2520903D1626C42F008026264626CA7
:10190000002A3FF41BAF11F0200118BF002D03D0B7
:10191000204600F05FFB20684069616C00F04000E9
:1019200001F00801401800F0B58000BF206850E8C1
:10193000030F216820F4907041E80302BAB32068D5
:1019400050E8030F216820F4907041E8030272B35D
:10195000206850E8030F216820F4907041E80302EA
:101960002AB3206850E8030F216820F4907041E802
:101970000302002ADAD11AE0206850E8050F216836
:1019800020F0010041E80502DAB1206850E8050FB7
:10199000216820F0010041E8050292B1206850E87A
:1019A000050F216820F0010041E805024AB12068D6
:1019B00050E8050F216820F0010041E80502002AE7
:1019C000DAD1206B012824D1206850E8030F216868
:1019D00020F0100041E80302DAB1206850E8030F5C
:1019E000216820F0100041E8030292B1206850E81D
:1019F000030F216820F0100041E803024AB120687B
:101A000050E8030F216820F0100041E80302002A8B
:101A1000DAD1202084F84200002020632068406949
:101A200040063FD5206850E8050F216820F04000AF
:101A300041E80502DAB1206850E8050F216820F07E
:101A4000400041E8050292B1206850E8050F216886
:101A500020F0400041E805024AB1206850E8050F37
:101A6000216820F0400041E80502002ADAD1E06B4D
:101A7000C0B141F6C971C0F600014163FEF73CFEFA
:101A800000283FF45BAEE06B416B02B0BDE8B040B4
:101A9000084700BF2046FFF7DFFD0020606402B06A
:101AA000B0BD00BF204602B0BDE8B040FFF7D4BDD6
:101AB000401A216851E8031F226821F4907142E81E
:101AC0000313DBB1216851E8031F226821F49071F0
:101AD00042E8031393B1216851E8031F226821F4FF
:101AE000907142E803134BB1216851E8031F22684B
:101AF00021F4907142E80313002BDAD1216851E8F8
:101B0000051F226821F0010142E80513DBB12168BD
:101B100051E8051F226821F0010142E8051393B145
:101B2000216851E8051F226821F0010142E80513F0
:101B30004BB1216851E8051F226821F0010142E8FC
:101B40000513002BDAD1202184F8421000212163F3
:101B5000216851E8031F226821F0100142E80313B5
:101B6000DBB1216851E8031F226821F0100142E82F
:101B7000031393B1216851E8031F226821F010017B
:101B800042E803134BB1216851E8031F226821F09A
:101B9000100142E80313002BDAD1022281B2204661
:101BA000626302B0BDE8B040FFF754BD216A31F86E
:101BB000022B6FF35F22426021628CE5002804BF94
:101BC0000120704710B5044690F8410028B9002064
:101BD00084F84000204600F063F8242084F8410097
:101BE0002068D4E90212C36823F40053C360036978
:101BF00023F440531A430261D4E904231143C26819
:101C0000194341F20C639A431143C1604169A269CF
:101C100021F44071114343F60002C4F201029042E4
:101C2000416103D0FFF714F902E000BFFFF724F988
:101C30006268192148439100B0FBF1F048F21F514E
:101C4000C5F2EB11A0FB01235A094FF69C73C0F6B5
:101C5000FF7302FB0300322303EB0010A0FB010122
:101C6000F02303EA5113206803EB0212C1F343117E
:101C700011448160016921F490410161416921F0C1
:101C80002A014161C16841F40051C1600020202156
:101C9000606484F8411084F84210606310BD000055
:101CA00070B586B040F60004C4F20104006804F583
:101CB000405100268842049602D006B070BD00BF95
:101CC00041F21800C4F20200016802AD41F4804103
:101CD0000160016801F4804101910199016841F0BE
:101CE000040101600068294600F004000190019899
:101CF0004FF40070029002200390032005902046CC
:101D0000FEF768FD4FF48060CDE9020620462946C3
:101D10000496FEF75FFD252001210022FEF7F6FE66
:101D20002520FEF7DFFE06B070BD00007047000002
:101D30002DE9F04381B0044690F84100202840F09E
:101D4000B180884600294FF0010000F0D680164689
:101D5000002A00F0D2800020606421201D4684F813
:101D60004100FEF751FEA684E684A1680646B1F55F
:101D7000805F03D12069002800F0988047464FF02B
:101D80000008E18C2068002900F0968005F1010927
:101D90000BE000BF47B317F8011B4160E18C01392C
:101DA000E184E18C002900F0878001680906F1D404
:101DB000B9F1000F0AD0EDB1FEF726FE801BA84254
:101DC00018D8206801680906F6D5E3E70168090616
:101DD000E0D4016809065CBF01685FEA0161D9D4FB
:101DE00001680906F2D5D5E738F8021B00276FF322
:101DF0005F21D2E7206850E8030F216820F4D070FB
:101E000041E80302BAB3206850E8030F216820F4C8
:101E1000D07041E8030272B3206850E8030F2168D4
:101E200020F4D07041E803022AB3206850E8030F81
:101E3000216820F4D07041E80302002ADAD11AE0C8
:101E4000206850E8050F216820F0010041E80502F4
:101E5000DAB1206850E8050F216820F0010041E860
:101E6000050292B1206850E8050F216820F00100BA
:101E700041E805024AB1206850E8050F216820F0CA
:101E8000010041E80502002ADAD1202084F841004F
:101E900084F84200002084F84000032001B0BDE82F
:101EA000F08300BF022001B0BDE8F0830027E18C81
:101EB000206800297FF46AAF0168490619D4FDB192
:101EC000691C0DD10168490613D4016849065CBF3D
:101ED00001685FEA41610CD401684906F2D508E067
:101EE000FEF792FD801BA8420AD8206800684006D1
:101EF000F6D5202084F84100002001B0BDE8F08331
:101F0000206850E8030F216820F4D07041E80302F4
:101F1000002A3ED0206850E8030F216820F4D070DA
:101F200041E80302AAB3206850E8030F216820F4B7
:101F3000D07041E8030262B3206850E8030F2168C3
:101F400020F4D07041E80302002AD9D121E000BF7B
:101F5000206850E8050F216820F0010041E80502E3
:101F6000002A3FF492AF206850E8050F216820F066
:101F7000010041E80502002A3FF487AF206850E8DD
:101F8000050F216820F0010041E80502002A3FF416
:101F90007CAF206850E8050F216820F0010041E87F
:101FA0000502002AD4D170E770470000FEE7000068
:101FB000FEE70000FEE700007047000070470000E9
:101FC000FEF728BD70470000406A0021C185C1842A
:101FD000FFF742BB81B090F84210222921D18368DB
:101FE0000246B3F5805F09D152F8281F52F8183C19
:101FF000002B63D003685B680AE000BF52F8281F1B
:1020000013B90369002BF5D003685B6803F07F0305
:102010000B70116801311160C18D01390A04C1854D
:1020200002D001B0704700BF0168CA6822F02002E8
:10203000CA60CA6822F48072CA604A6922F001024A
:102040004A61202180F8421000214163026B012A7D
:102050003CD10163016851E8031F026821F01001BF
:1020600042E80313DBB1016851E8031F026821F065
:10207000100142E8031393B1016851E8031F02689D
:1020800021F0100142E803134BB1016851E8031F2E
:10209000026821F0100142E80313002BDAD1016835
:1020A0000A68D20606D5002200920A6800924968A2
:1020B00000910099818D01B0FFF7CCBA0268526897
:1020C0006FF35F2221F8022B8162A5E701B0FFF7D1
:1020D0002DBE000040F2F000C2F20000FFF7BEBAD1
:1020E000FEE7000094B0FEF7A3FC00240120CDE938
:1020F0000F44CDE90D440A900E904FF4E0104FF4D8
:102100008031022513900AA80394CDE90144CDE95A
:102110000B14CDE91151FEF7C3FE28B1EFF3108087
:1021200072B600BFFEE700BF0F20CDE904054FF4F3
:102130008060CDE9070404A802210694FEF7A8FDFB
:1021400020B1EFF3108072B6FEE700BF0225002633
:10215000684600950296FEF715FD28B1EFF3108052
:1021600072B600BFFEE700BF41F21800C4F20200E1
:10217000016840F6000441F0200101600168C4F2EA
:10218000010401F020010A910A990168002241F03E
:10219000040101600168032701F004010A910A9912
:1021A000016841F0080101600068032100F00800A7
:1021B0000A900A982046FEF721FC0D950AAD0A9771
:1021C000012720462946CDE90B76FEF703FB0020C8
:1021D000C1F22100CDE90B0704F5806029460A977A
:1021E000FEF7F8FA40F2A80004F51051C2F2000020
:1021F0004FF6FE730D96CDE90B66CDE904664722D6
:1022000080E84600C0E90336C0E90566FFF776F8C6
:1022100020B1EFF3108072B6FEE700BF4FF480509C
:102220000A9040F2A800C2F200000AA9FFF744F9A0
:1022300020B1EFF3108072B6FEE700BF40F2A80BAA
:10224000C2F2000B04A95846FFF71AF820B1EFF3C9
:10225000108072B6FEE700BF40F2F00004F5405176
:10226000C2F2000000250C234FF4E13280E8260082
:10227000C0E90355C0E90535C561FFF79FFC28B1EA
:10228000EFF3108072B600BFFEE700BF40F2700AA5
:10229000C2F2000A04F5E051504640F8081F0573E9
:1022A00005754FF46021C0E901550125C161056143
:1022B000FEF714F920B1EFF3108072B6FEE700BF0D
:1022C00002264FF000080AF108000AA9CDE90A65C4
:1022D000CDF83080FDF7C2FF20B1EFF3108072B669
:1022E000FEE700BF0AAF012520463946CDE90A6561
:1022F000CDE90C86FEF76EFA204602210122FEF798
:102300007DFB204602210022FEF778FB1420FEF719
:102310004DFA204602210122FEF770FBDBF8000097
:10232000C0F824805846FFF779F8DBF8000000BFBA
:10233000416A1D2908D8416A1D2905D8416A1D290D
:1023400002D8416A1E29F3D35846FFF79BF820466E
:102350003946CDE90A68CDE90C58FEF73BFA00BFD3
:1023600020460221FEF744FB0028F9D12046022135
:10237000FEF73EFB0028F9D020460221FEF738FB8D
:102380000028F9D120460221FEF732FB0028F9D0BF
:10239000DBF80000C0F824805846FFF73FF8DBF870
:1023A000000000BF416A312908D8416A312905D8A7
:1023B000416A312902D8416A3229F3D35846FFF7DE
:1023C00061F820460221FEF713FB07462046022152
:1023D000FEF70EFB0028F9D120460221FEF708FB8C
:1023E0000028F9D0DBF80000C0F824805846FFF739
:1023F00015F8DBF8000000BF416A312908D8416AAE
:10240000312905D8416A312902D8416A3229F3D3EA
:102410005846FFF737F820460221FEF7E9FA06464C
:1024200020460221FEF7E4FA0028F9D16FF03F05BB
:10243000002F18BF6FF07F0708BF402520460221FC
:10244000FEF7D6FA0028F9D0DBF80000002E08BF0E
:102450003D46C0F824805846FEF7E0FFDBF8000058
:10246000416A312908D8416A312905D8416A3129A0
:1024700002D8416A3229F3D35846FFF703F82046C1
:102480000221FEF7B5FA064620460221FEF7B0FA11
:102490000028F9D120460221FEF7AAFA0028F9D037
:1024A000002E18BF0126DBF8000045EA4615C0F8EB
:1024B00024805846FEF7B2FFDBF80000416A31295C
:1024C00008D8416A312905D8416A312902D8416AC0
:1024D0003229F3D35846FEF7D5FF20460221FEF7F6
:1024E00087FA064620460221FEF782FA0028F9D133
:1024F00020460221FEF77CFA0028F9D0002E18BFF2
:102500000126DBF8000045EA0615C0F8248058468D
:10251000FEF784FFDBF80000416A312908D8416AE0
:10252000312905D8416A312902D8416A3229F3D3C9
:102530005846FEF7A7FF20460221FEF759FA064645
:1025400020460221FEF754FA0028F9D12046022144
:10255000FEF74EFA0028F9D0002E18BF0126DBF84E
:10256000000045EAC607C0F824805846FEF756FF2B
:10257000DBF80000416A312908D8416A312905D8C1
:10258000416A312902D8416A3229F3D35846FEF70D
:1025900079FF20460221FEF72BFA0646204602214B
:1025A000FEF726FA0028F9D120460221FEF720FA8C
:1025B0000028F9D0002E18BF0126DBF800004FEAF2
:1025C0008609C0F824805846FEF728FFDBF8000093
:1025D000416A312908D8416A312905D8416A31292F
:1025E00002D8416A3229F3D35846FEF74BFF204602
:1025F0000221FEF7FDF9064620460221FEF7F8F912
:102600000028F9D120460221FEF7F2F90028F9D07E
:10261000002E18BF0126DBF800007500C0F82480EA
:102620005846FEF7FBFEDBF8000000BF416A312987
:1026300008D8416A312905D8416A312902D8416A4E
:102640003229F3D35846FEF71DFF20460221FEF73C
:10265000CFF9064620460221FEF7CAF90028F9D133
:1026600047EA09002843002E18BF012630438AF8A4
:10267000000000BF20460221FEF7BAF90028F9D079
:10268000DBF80000C0F824805846FEF7C7FEDBF8F0
:10269000000000BF416A312908D8416A312905D8B4
:1026A000416A312902D8416A3229F3D35846FEF7EC
:1026B000E9FE20460221FEF79BF90746204602214B
:1026C000FEF796F90028F9D120460221FEF790F98D
:1026D0000028F9D0DBF80000C0F824805846FEF747
:1026E0009DFEDBF8000000BF416A312908D8416A2D
:1026F000312905D8416A312902D8416A3229F3D3F8
:102700005846FEF7BFFE20460221FEF771F9064645
:1027100020460221FEF76CF90028F9D16FF03F0541
:10272000002F18BF6FF07F0708BF40252046022109
:10273000FEF75EF90028F9D0DBF80000002E08BF94
:102740003D46C0F824805846FEF768FEDBF80000DE
:10275000416A312908D8416A312905D8416A3129AD
:1027600002D8416A3229F3D35846FEF78BFE204641
:102770000221FEF73DF9064620460221FEF738F910
:102780000028F9D120460221FEF732F90028F9D0BD
:10279000002E18BF0126DBF8000045EA4615C0F8F8
:1027A00024805846FEF73AFEDBF80000416A3129E2
:1027B00008D8416A312905D8416A312902D8416ACD
:1027C0003229F3D35846FEF75DFE20460221FEF77C
:1027D0000FF9064620460221FEF70AF90028F9D132
:1027E00020460221FEF704F90028F9D0002E18BF78
:1027F0000126DBF8000045EA0615C0F8248058469B
:10280000FEF70CFEDBF80000416A312908D8416A66
:10281000312905D8416A312902D8416A3229F3D3D6
:102820005846FEF72FFE20460221FEF7E1F8064645
:1028300020460221FEF7DCF80028F9D120460221CB
:10284000FEF7D6F80028F9D0002E18BF0126DBF8D5
:10285000000045EAC609C0F824805846FEF7DEFDB0
:10286000DBF80000416A312908D8416A312905D8CE
:10287000416A312902D8416A3229F3D35846FEF71A
:1028800001FE20460221FEF7B3F80646204602214B
:10289000FEF7AEF80028F9D120460221FEF7A8F88D
:1028A0000028F9D0002E18BF0126DBF80000B70081
:1028B000C0F824805846FEF7B1FDDBF8000000BFE9
:1028C000416A312908D8416A312905D8416A31293C
:1028D00002D8416A3229F3D35846FEF7D3FD204689
:1028E0000221FEF785F8064620460221FEF780F811
:1028F0000028F9D120460221FEF77AF80028F9D005
:10290000002E18BF0126DBF800007500C0F82480F7
:102910005846FEF783FDDBF8000000BF416A31290D
:1029200008D8416A312905D8416A312902D8416A5B
:102930003229F3D35846FEF7A5FD20460221FEF7C3
:1029400057F8064620460221FEF752F80028F9D132
:1029500049EA07002843002E18BF012630438AF8B1
:10296000010000BF20460221FEF742F80028F9D0FE
:10297000DBF80000C0F824805846FEF74FFDDBF876
:10298000000000BF416A312908D8416A312905D8C1
:10299000416A312902D8416A3229F3D35846FEF7F9
:1029A00071FD20460221FEF723F80746204602214A
:1029B000FEF71EF80028F9D120460221FEF718F88C
:1029C0000028F9D0DBF80000C0F824805846FEF754
:1029D00025FDDBF8000000BF416A312908D8416AB3
:1029E000312905D8416A312902D8416A3229F3D305
:1029F0005846FEF747FD20460221FDF7F9FF06463F
:102A000020460221FDF7F4FF0028F9D16FF03F05C1
:102A1000002F18BF6FF07F0708BF40252046022116
:102A2000FDF7E6FF0028F9D0DBF80000002E08BF14
:102A30003D46C0F824805846FEF7F0FCDBF8000065
:102A4000416A312908D8416A312905D8416A3129BA
:102A500002D8416A3229F3D35846FEF713FD2046C7
:102A60000221FDF7C5FF064620460221FDF7C0FF03
:102A70000028F9D120460221FDF7BAFF0028F9D03D
:102A8000002E18BF0126DBF8000045EA4615C0F805
:102A900024805846FEF7C2FCDBF80000416A312969
:102AA00008D8416A312905D8416A312902D8416ADA
:102AB0003229F3D35846FEF7E5FC20460221FDF704
:102AC00097FF064620460221FDF792FF0028F9D124
:102AD00020460221FDF78CFF0028F9D0002E18BFF8
:102AE0000126DBF8000045EA0615C0F824805846A8
:102AF000FEF794FCDBF80000416A312908D8416AEE
:102B0000312905D8416A312902D8416A3229F3D3E3
:102B10005846FEF7B7FC20460221FDF769FF06463E
:102B200020460221FDF764FF0028F9D1204602214A
:102B3000FDF75EFF0028F9D0002E18BF0126DBF854
:102B4000000045EAC609C0F824805846FEF766FC36
:102B5000DBF80000416A312908D8416A312905D8DB
:102B6000416A312902D8416A3229F3D35846FEF727
:102B700089FC20460221FDF73BFF06462046022144
:102B8000FDF736FF0028F9D120460221FDF730FF7E
:102B90000028F9D0002E18BF0126DBF80000B7008E
:102BA000C0F824805846FEF739FCDBF8000000BF6F
:102BB000416A312908D8416A312905D8416A312949
:102BC00002D8416A3229F3D35846FEF75BFC20460F
:102BD0000221FDF70DFF064620460221FDF708FF02
:102BE0000028F9D120460221FDF702FF0028F9D084
:102BF000002E18BF0126DBF800007500C0F8248005
:102C00005846FEF70BFCDBF8000000BF416A312993
:102C100008D8416A312905D8416A312902D8416A68
:102C20003229F3D35846FEF72DFC20460221FDF74A
:102C3000DFFE064620460221FDF7DAFE0028F9D124
:102C400049EA07002843002E18BF012630438AF8BE
:102C5000020000BF20460221FDF7CAFE0028F9D07D
:102C6000DBF80000C0F824805846FEF7D7FBDBF8FD
:102C7000000000BF416A312908D8416A312905D8CE
:102C8000416A312902D8416A3229F3D35846FEF706
:102C9000F9FB20460221FDF7ABFE07462046022144
:102CA000FDF7A6FE0028F9D120460221FDF7A0FE7F
:102CB0000028F9D0DBF80000C0F824805846FEF761
:102CC000ADFBDBF8000000BF416A312908D8416A3A
:102CD000312905D8416A312902D8416A3229F3D312
:102CE0005846FEF7CFFB20460221FDF781FE06463F
:102CF00020460221FDF77CFE0028F9D16FF03F0548
:102D0000002F18BF6FF07F0708BF40252046022123
:102D1000FDF76EFE0028F9D0DBF80000002E08BF9A
:102D20003D46C0F824805846FEF778FBDBF80000EB
:102D3000416A312908D8416A312905D8416A3129C7
:102D400002D8416A3229F3D35846FEF79BFB20464E
:102D50000221FDF74DFE064620460221FDF748FE02
:102D60000028F9D120460221FDF742FE0028F9D0C3
:102D7000002E18BF0126DBF8000045EA4615C0F812
:102D800024805846FEF74AFBDBF80000416A3129EF
:102D900008D8416A312905D8416A312902D8416AE7
:102DA0003229F3D35846FEF76DFB20460221FDF78A
:102DB0001FFE064620460221FDF71AFE0028F9D123
:102DC00020460221FDF714FE0028F9D0002E18BF7E
:102DD0000126DBF8000045EA0615C0F824805846B5
:102DE000FEF71CFBDBF80000416A312908D8416A74
:102DF000312905D8416A312902D8416A3229F3D3F1
:102E00005846FEF73FFB20460221FDF7F1FD06463E
:102E100020460221FDF7ECFD0028F9D120460221D1
:102E2000FDF7E6FD0028F9D0002E18BF0126DBF8DB
:102E3000000045EAC609C0F824805846FEF7EEFABD
:102E4000DBF80000416A312908D8416A312905D8E8
:102E5000416A312902D8416A3229F3D35846FEF734
:102E600011FB20460221FDF7C3FD06462046022144
:102E7000FDF7BEFD0028F9D120460221FDF7B8FD7F
:102E80000028F9D0002E18BF0126DBF80000B7009B
:102E9000C0F824805846FEF7C1FADBF8000000BFF6
:102EA000416A312908D8416A312905D8416A312956
:102EB00002D8416A3229F3D35846FEF7E3FA204696
:102EC0000221FDF795FD064620460221FDF790FD03
:102ED0000028F9D120460221FDF78AFD0028F9D00B
:102EE000002E18BF0126DBF800007500C0F8248012
:102EF0005846FEF793FADBF8000000BF416A31291B
:102F000008D8416A312905D8416A312902D8416A75
:102F10003229F3D35846FEF7B5FA20460221FDF7D1
:102F200067FD064620460221FDF762FD0028F9D123
:102F300049EA07002843002E18BF012630438AF8CB
:102F4000030040F2F000C2F20000514604224FF0AC
:102F5000FF33FEF7EDFE4FF47A70FDF727FC0226F3
:102F6000FFF7C0B9000000000000000001020304E8
:102F70000607080900000000010203040102020321
:102F80000405060708090A0B0C0D0E0F10100000AF
:102F9000B02F0008000000201000000028010008E9
:102FA000C02F000810000020300700004401000876
:102FB00001000000100000000024F40000000000E8
:04000005080000ED02
:00000001FF
